{
  "contractName": "Hello",
  "abi": [
    {
      "inputs": [],
      "payable": false,
      "stateMutability": "nonpayable",
      "type": "constructor"
    },
    {
      "constant": true,
      "inputs": [
        {
          "internalType": "uint256",
          "name": "",
          "type": "uint256"
        }
      ],
      "name": "borrowerids",
      "outputs": [
        {
          "internalType": "uint256",
          "name": "",
          "type": "uint256"
        }
      ],
      "payable": false,
      "stateMutability": "view",
      "type": "function"
    },
    {
      "constant": true,
      "inputs": [
        {
          "internalType": "uint256",
          "name": "",
          "type": "uint256"
        }
      ],
      "name": "loanids",
      "outputs": [
        {
          "internalType": "uint256",
          "name": "",
          "type": "uint256"
        }
      ],
      "payable": false,
      "stateMutability": "view",
      "type": "function"
    },
    {
      "constant": false,
      "inputs": [
        {
          "internalType": "uint256",
          "name": "_borrowerid",
          "type": "uint256"
        },
        {
          "internalType": "enum Hello.Homeownership",
          "name": "_homeownership",
          "type": "uint8"
        },
        {
          "internalType": "int256",
          "name": "_annualincome",
          "type": "int256"
        },
        {
          "internalType": "string",
          "name": "_verificationstatus",
          "type": "string"
        },
        {
          "internalType": "bytes8",
          "name": "_zipcode",
          "type": "bytes8"
        },
        {
          "internalType": "bytes2",
          "name": "_addrstate",
          "type": "bytes2"
        },
        {
          "internalType": "string",
          "name": "_employmenttitle",
          "type": "string"
        },
        {
          "internalType": "uint256",
          "name": "_ficorangelow",
          "type": "uint256"
        },
        {
          "internalType": "uint256",
          "name": "_ficorangehigh",
          "type": "uint256"
        }
      ],
      "name": "setBorrower",
      "outputs": [],
      "payable": false,
      "stateMutability": "nonpayable",
      "type": "function"
    },
    {
      "constant": false,
      "inputs": [
        {
          "internalType": "uint256",
          "name": "_loanid",
          "type": "uint256"
        },
        {
          "internalType": "uint256",
          "name": "_borrowerid",
          "type": "uint256"
        },
        {
          "internalType": "enum Hello.Loanstatus",
          "name": "_loanstatus",
          "type": "uint8"
        },
        {
          "internalType": "enum Hello.Loanterm",
          "name": "_loanterm",
          "type": "uint8"
        },
        {
          "internalType": "int256",
          "name": "_loanamt",
          "type": "int256"
        },
        {
          "internalType": "int256",
          "name": "_interestratebasispoints",
          "type": "int256"
        },
        {
          "internalType": "int256",
          "name": "_installment",
          "type": "int256"
        }
      ],
      "name": "setLoan",
      "outputs": [],
      "payable": false,
      "stateMutability": "nonpayable",
      "type": "function"
    },
    {
      "constant": true,
      "inputs": [
        {
          "internalType": "uint256",
          "name": "_bid",
          "type": "uint256"
        }
      ],
      "name": "getBorrower",
      "outputs": [
        {
          "internalType": "enum Hello.Homeownership",
          "name": "homeownership",
          "type": "uint8"
        },
        {
          "internalType": "int256",
          "name": "annualincome",
          "type": "int256"
        },
        {
          "internalType": "string",
          "name": "verificationstatus",
          "type": "string"
        },
        {
          "internalType": "string",
          "name": "title",
          "type": "string"
        },
        {
          "internalType": "uint256",
          "name": "ficolow",
          "type": "uint256"
        },
        {
          "internalType": "uint256",
          "name": "ficohigh",
          "type": "uint256"
        }
      ],
      "payable": false,
      "stateMutability": "view",
      "type": "function"
    },
    {
      "constant": true,
      "inputs": [],
      "name": "getBorrowers",
      "outputs": [
        {
          "internalType": "uint256[]",
          "name": "",
          "type": "uint256[]"
        }
      ],
      "payable": false,
      "stateMutability": "view",
      "type": "function"
    },
    {
      "constant": true,
      "inputs": [],
      "name": "getLoans",
      "outputs": [
        {
          "internalType": "uint256[]",
          "name": "",
          "type": "uint256[]"
        }
      ],
      "payable": false,
      "stateMutability": "view",
      "type": "function"
    },
    {
      "constant": true,
      "inputs": [
        {
          "internalType": "uint256",
          "name": "_loanid",
          "type": "uint256"
        }
      ],
      "name": "getLoanEconomics",
      "outputs": [
        {
          "internalType": "uint256",
          "name": "",
          "type": "uint256"
        },
        {
          "internalType": "int256",
          "name": "",
          "type": "int256"
        },
        {
          "internalType": "int256",
          "name": "",
          "type": "int256"
        },
        {
          "internalType": "int256",
          "name": "",
          "type": "int256"
        }
      ],
      "payable": false,
      "stateMutability": "view",
      "type": "function"
    },
    {
      "constant": false,
      "inputs": [
        {
          "internalType": "string",
          "name": "_name",
          "type": "string"
        }
      ],
      "name": "setName",
      "outputs": [],
      "payable": false,
      "stateMutability": "nonpayable",
      "type": "function"
    },
    {
      "constant": true,
      "inputs": [],
      "name": "getName",
      "outputs": [
        {
          "internalType": "string",
          "name": "",
          "type": "string"
        }
      ],
      "payable": false,
      "stateMutability": "view",
      "type": "function"
    },
    {
      "constant": true,
      "inputs": [],
      "name": "sayHello",
      "outputs": [
        {
          "internalType": "string",
          "name": "",
          "type": "string"
        },
        {
          "internalType": "string",
          "name": "",
          "type": "string"
        }
      ],
      "payable": false,
      "stateMutability": "view",
      "type": "function"
    }
  ],
  "bytecode": "0x608060405234801561001057600080fd5b5033600460006101000a81548173ffffffffffffffffffffffffffffffffffffffff021916908373ffffffffffffffffffffffffffffffffffffffff160217905550611198806100616000396000f3fe608060405234801561001057600080fd5b50600436106100a95760003560e01c8063bc4aa83c11610071578063bc4aa83c1461036e578063c47f0027146103c5578063e0c6934a14610480578063ef5fb05b146104f0578063f7b0c8df146105df578063f9392844146107b7576100a9565b806317d7de7c146100ae5780636854786a1461013157806384bf0cb8146101905780638500d919146101d2578063aa4a87111461030f575b600080fd5b6100b66107f9565b6040518080602001828103825283818151815260200191508051906020019080838360005b838110156100f65780820151818401526020810190506100db565b50505050905090810190601f1680156101235780820380516001836020036101000a031916815260200191505b509250505060405180910390f35b61013961089b565b6040518080602001828103825283818151815260200191508051906020019060200280838360005b8381101561017c578082015181840152602081019050610161565b505050509050019250505060405180910390f35b6101bc600480360360208110156101a657600080fd5b81019080803590602001909291905050506108f3565b6040518082815260200191505060405180910390f35b6101fe600480360360208110156101e857600080fd5b8101908080359060200190929190505050610914565b6040518087600381111561020e57fe5b60ff1681526020018681526020018060200180602001858152602001848152602001838103835287818151815260200191508051906020019080838360005b8381101561026857808201518184015260208101905061024d565b50505050905090810190601f1680156102955780820380516001836020036101000a031916815260200191505b50838103825286818151815260200191508051906020019080838360005b838110156102ce5780820151818401526020810190506102b3565b50505050905090810190601f1680156102fb5780820380516001836020036101000a031916815260200191505b509850505050505050505060405180910390f35b610317610bd9565b6040518080602001828103825283818151815260200191508051906020019060200280838360005b8381101561035a57808201518184015260208101905061033f565b505050509050019250505060405180910390f35b61039a6004803603602081101561038457600080fd5b8101908080359060200190929190505050610c31565b6040518085815260200184815260200183815260200182815260200194505050505060405180910390f35b61047e600480360360208110156103db57600080fd5b81019080803590602001906401000000008111156103f857600080fd5b82018360208201111561040a57600080fd5b8035906020019184600183028401116401000000008311171561042c57600080fd5b91908080601f016020809104026020016040519081016040528093929190818152602001838380828437600081840152601f19601f820116905080830192505050505050509192919290505050610cd1565b005b6104ee600480360360e081101561049657600080fd5b810190808035906020019092919080359060200190929190803560ff169060200190929190803560ff169060200190929190803590602001909291908035906020019092919080359060200190929190505050610dae565b005b6104f8610e91565b604051808060200180602001838103835285818151815260200191508051906020019080838360005b8381101561053c578082015181840152602081019050610521565b50505050905090810190601f1680156105695780820380516001836020036101000a031916815260200191505b50838103825284818151815260200191508051906020019080838360005b838110156105a2578082015181840152602081019050610587565b50505050905090810190601f1680156105cf5780820380516001836020036101000a031916815260200191505b5094505050505060405180910390f35b6107b560048036036101208110156105f657600080fd5b8101908080359060200190929190803560ff169060200190929190803590602001909291908035906020019064010000000081111561063457600080fd5b82018360208201111561064657600080fd5b8035906020019184600183028401116401000000008311171561066857600080fd5b91908080601f016020809104026020016040519081016040528093929190818152602001838380828437600081840152601f19601f820116905080830192505050505050509192919290803577ffffffffffffffffffffffffffffffffffffffffffffffff1916906020019092919080357dffffffffffffffffffffffffffffffffffffffffffffffffffffffffffff191690602001909291908035906020019064010000000081111561071b57600080fd5b82018360208201111561072d57600080fd5b8035906020019184600183028401116401000000008311171561074f57600080fd5b91908080601f016020809104026020016040519081016040528093929190818152602001838380828437600081840152601f19601f8201169050808301925050505050505091929192908035906020019092919080359060200190929190505050610f71565b005b6107e3600480360360208110156107cd57600080fd5b810190808035906020019092919050505061109d565b6040518082815260200191505060405180910390f35b606060058054600181600116156101000203166002900480601f0160208091040260200160405190810160405280929190818152602001828054600181600116156101000203166002900480156108915780601f1061086657610100808354040283529160200191610891565b820191906000526020600020905b81548152906001019060200180831161087457829003601f168201915b5050505050905090565b606060038054806020026020016040519081016040528092919081815260200182805480156108e957602002820191906000526020600020905b8154815260200190600101908083116108d5575b5050505050905090565b6002818154811061090057fe5b906000526020600020016000915090505481565b6000806060806000806001600088815260200190815260200160002060080160009054906101000a900460ff1615610b24576001600088815260200190815260200160002060010160009054906101000a900460ff166001600089815260200190815260200160002060020154600160008a8152602001908152602001600020600301600160008b8152602001908152602001600020600501600160008c815260200190815260200160002060060154600160008d815260200190815260200160002060070154838054600181600116156101000203166002900480601f016020809104026020016040519081016040528092919081815260200182805460018160011615610100020316600290048015610a705780601f10610a4557610100808354040283529160200191610a70565b820191906000526020600020905b815481529060010190602001808311610a5357829003601f168201915b50505050509350828054600181600116156101000203166002900480601f016020809104026020016040519081016040528092919081815260200182805460018160011615610100020316600290048015610b0c5780601f10610ae157610100808354040283529160200191610b0c565b820191906000526020600020905b815481529060010190602001808311610aef57829003601f168201915b50505050509250955095509550955095509550610bd0565b60037fffffffffffffffffffffffffffffffffffffffffffffffffffffffffffffffff6000808292506040518060400160405280600481526020017f6e756c6c0000000000000000000000000000000000000000000000000000000081525091906040518060400160405280600481526020017f6e756c6c0000000000000000000000000000000000000000000000000000000081525091908191508090509550955095509550955095505b91939550919395565b60606002805480602002602001604051908101604052809291908181526020018280548015610c2757602002820191906000526020600020905b815481526020019060010190808311610c13575b5050505050905090565b60008060008060008086815260200190815260200160002060060160009054906101000a900460ff1615610caf57846000808781526020019081526020016000206003015460008088815260200190815260200160002060040154600080898152602001908152602001600020600501549350935093509350610cca565b60008060008083935082925081915080905093509350935093505b9193509193565b600460009054906101000a900473ffffffffffffffffffffffffffffffffffffffff1673ffffffffffffffffffffffffffffffffffffffff163373ffffffffffffffffffffffffffffffffffffffff1614610d94576040517f08c379a00000000000000000000000000000000000000000000000000000000081526004018080602001828103825260168152602001807f596f7520617265206e6f7420746865206f776e6572210000000000000000000081525060200191505060405180910390fd5b8060059080519060200190610daa9291906110be565b5050565b60008060008981526020019081526020016000209050878160000181905550868160010181905550858160020160006101000a81548160ff02191690836004811115610df657fe5b0217905550848160020160016101000a81548160ff02191690836001811115610e1b57fe5b021790555083816003018190555082816004018190555081816005018190555060018160060160006101000a81548160ff02191690831515021790555060016002899080600181540180825580915050906001820390600052602060002001600090919290919091505550505050505050505050565b60608060056040518060400160405280601281526020017f48656c6c6f206d79206e616d652069733a20000000000000000000000000000081525090808054600181600116156101000203166002900480601f016020809104026020016040519081016040528092919081815260200182805460018160011615610100020316600290048015610f625780601f10610f3757610100808354040283529160200191610f62565b820191906000526020600020905b815481529060010190602001808311610f4557829003601f168201915b50505050509050915091509091565b6000600160008b81526020019081526020016000209050898160000181905550888160010160006101000a81548160ff02191690836003811115610fb157fe5b021790555087816002018190555086816003019080519060200190610fd79291906110be565b50858160040160006101000a81548167ffffffffffffffff021916908360c01c0217905550848160040160086101000a81548161ffff021916908360f01c0217905550838160050190805190602001906110329291906110be565b5082816006018190555081816007018190555060018160080160006101000a81548160ff021916908315150217905550600160038b90806001815401808255809150509060018203906000526020600020016000909192909190915055505050505050505050505050565b600381815481106110aa57fe5b906000526020600020016000915090505481565b828054600181600116156101000203166002900490600052602060002090601f016020900481019282601f106110ff57805160ff191683800117855561112d565b8280016001018555821561112d579182015b8281111561112c578251825591602001919060010190611111565b5b50905061113a919061113e565b5090565b61116091905b8082111561115c576000816000905550600101611144565b5090565b9056fea265627a7a7231582071bc68c7b947b9a542fb4995cdc5ea56b070a439606bb6728b663580daa9641e64736f6c63430005100032",
  "source": "pragma solidity ^0.5.1;\n\ncontract Hello {\n\n\tenum Homeownership {own, mortgage, rent, unknown}\n\tenum Loanstatus {current, fullypaid, late16to30, late31to120, graceperiod}\n\tenum Loanterm {m36, m60}\n\tenum LoanPurpose{car, creditcard, debtconsolidation, homeimprovement, medical, house, majorpurchase, renewableenergy, smallbusiness, vacation}\n\n\t//declares a struct that represents a loan\n\tstruct Borrower{\n\t\tuint borrowerid;\n\t\tHomeownership homeownership;\n\t\tint annualincome;\n\t\tstring verificationstatus; //{Not verified, verified, source verified}\n\t\tbytes8 zipcode;\n\t\t//state abbreviations in the US are in two letters, but we are aiming to save space here by storing as two bytes\n\t\t//For this purpose we will use the mapping from the state abbreviations to a 2 digit space\n\t\t//USHCN 2-digit State Codes\n\t\t//https://cdiac.ess-dive.lbl.gov/climate/temp/us_recordtemps/states.html\n\t\tbytes2 addrstate;\n\t\tstring employmenttitle;\n\t\tuint ficorangelow;\n\t\tuint ficorangehigh;\n\t\tbool isValue;\n\t}\n\n\tstruct Loan{\n\t\tuint loanid;\n\t\tuint borrowerid;\n\t\tLoanstatus loanstatus;\n\t\tLoanterm loanterm;\n\t\tint loanamt;\n\t\tint interestratebasispoints;\n\t\tint installment;\n\t\tbool isValue;\n\t}\n\n\tmapping (uint => Loan) loansbook;\n\tmapping (uint => Borrower) borrowers;\n\n\tuint[] public loanids;\n\tuint[] public borrowerids;\n\n\tfunction setBorrower(\n\t\tuint _borrowerid, \n\t\tHomeownership _homeownership, \n\t\tint _annualincome, \n\t\tstring memory _verificationstatus,\n\t\tbytes8 _zipcode,\n\t\tbytes2 _addrstate,\n\t\tstring memory _employmenttitle,\n\t\tuint _ficorangelow,\n\t\tuint _ficorangehigh\n\t) public {\n\t\tBorrower storage borrower = borrowers[_borrowerid];\n\t\tborrower.borrowerid = _borrowerid;\n\t\tborrower.homeownership = _homeownership;\n\t\tborrower.annualincome = _annualincome;\n\t\tborrower.verificationstatus = _verificationstatus;\n\t\tborrower.zipcode = _zipcode;\n\t\tborrower.addrstate = _addrstate;\n\t\tborrower.employmenttitle = _employmenttitle;\n\t\tborrower.ficorangelow = _ficorangelow;\n\t\tborrower.ficorangehigh = _ficorangehigh;\n\t\tborrower.isValue = true;\n\t\tborrowerids.push(_borrowerid)-1;\n\t}\n\n\tfunction setLoan(uint _loanid, uint _borrowerid, Loanstatus _loanstatus, Loanterm _loanterm, int _loanamt, int _interestratebasispoints, int _installment) public {\n\t\tLoan storage loan = loansbook[_loanid]; //have to be explicit about storage vs memory location, loans have to be persistent hence kept in \"storage\"\n\t\tloan.loanid = _loanid;\n\t\tloan.borrowerid = _borrowerid;\n\t\tloan.loanstatus = _loanstatus;\n\t\tloan.loanterm = _loanterm;\n\t\tloan.loanamt = _loanamt;\n\t\tloan.interestratebasispoints = _interestratebasispoints;\n\t\tloan.installment = _installment;\n\t\tloan.isValue = true;\n\t\tloanids.push(_loanid) - 1;\n\t}\n\n\t//As Solidity does not implement structs as objects and only supports them as loose bags of variables\n\t//we have to return multiple values in the function\n\tfunction getBorrower(uint _bid) view public returns(\n\t\t\t\t\t\t\t\t\t\t\t\tHomeownership homeownership,\n\t\t\t\t\t\t\t\t\t\t\t\tint annualincome,\n\t\t\t\t\t\t\t\t\t\t\t\tstring memory verificationstatus, \n\t\t\t\t\t\t\t\t\t\t\t\tstring memory title, \n\t\t\t\t\t\t\t\t\t\t\t\tuint ficolow, \n\t\t\t\t\t\t\t\t\t\t\t\tuint ficohigh){\n\t\tif(borrowers[_bid].isValue){\n\t\t\treturn(\n\t\t\t\tborrowers[_bid].homeownership, \n\t\t\t\tborrowers[_bid].annualincome, \n\t\t\t\tborrowers[_bid].verificationstatus, \n\t\t\t\tborrowers[_bid].employmenttitle, \n\t\t\t\tborrowers[_bid].ficorangelow,\n\t\t\t\tborrowers[_bid].ficorangehigh\n\t\t\t\t);\n\t\t}else{\n\t\t\treturn(Homeownership.unknown, -1, \"null\",\"null\",0,0);\n\t\t}\n\t}\n\n\t//This appears to be the only consistent way to access the ids of the borrowers\n\tfunction getBorrowers() view public returns(uint[] memory){//have to be explicit in returning a clone of the borrower array through memory instead of storage\n\t\treturn borrowerids;\n\t}\n\n\tfunction getLoans() view public returns(uint[] memory){//have to be explicit in returning a clone of the loansid array through memory instead of storage\n\t\treturn loanids;\n\t}\n\n\tfunction getLoanEconomics(uint _loanid) public view returns(uint, int, int, int){//will return the loanid, loan amount, loan basis points, installment\n\t\tif(loansbook[_loanid].isValue){\n\t\t\t//check if the loan id is real\n\t\t\treturn(_loanid,loansbook[_loanid].loanamt,loansbook[_loanid].interestratebasispoints, loansbook[_loanid].installment);\n\t\t}else{\n\t\t\t//else it wasn't real if we fail to return?\n\t\t\treturn(0,0,0,0);\n\t\t}\n\t} \n\n\taddress private owner;\n\tstring private name;\n\t\n\tconstructor() public {\n\t\towner = msg.sender;\n\t}\n\t\n\tfunction setName(string memory _name) public {\n\t\trequire(msg.sender == owner, \"You are not the owner!\");\n\t\tname = _name;\n\t}\n\t\n\tfunction getName() public view returns (string memory){\n\t\treturn name;\n\t}\n\t\n\tfunction sayHello() public view returns (string memory, string memory){\n\t\treturn (\"Hello my name is: \", name);\n\t}\n\t//a comment to be updated\n}\n",
  "sourcePath": "/Users/stanleyyong/localchaingeth/hello/contracts/Hello.sol",
  "compiler": {
    "name": "solc",
    "version": "0.5.16+commit.9c3226ce.Emscripten.clang"
  },
  "schemaVersion": "3.0.21",
  "updatedAt": "2020-01-31T02:15:24.915Z",
  "networkType": "ethereum",
  "devdoc": {
    "methods": {}
  },
  "userdoc": {
    "methods": {}
  }
}