{
  "contractName": "Hello",
  "abi": [
    {
      "inputs": [],
      "payable": false,
      "stateMutability": "nonpayable",
      "type": "constructor"
    },
    {
      "constant": true,
      "inputs": [
        {
          "internalType": "uint256",
          "name": "",
          "type": "uint256"
        }
      ],
      "name": "borrowerids",
      "outputs": [
        {
          "internalType": "bytes32",
          "name": "",
          "type": "bytes32"
        }
      ],
      "payable": false,
      "stateMutability": "view",
      "type": "function"
    },
    {
      "constant": true,
      "inputs": [
        {
          "internalType": "uint256",
          "name": "",
          "type": "uint256"
        }
      ],
      "name": "loanids",
      "outputs": [
        {
          "internalType": "uint256",
          "name": "",
          "type": "uint256"
        }
      ],
      "payable": false,
      "stateMutability": "view",
      "type": "function"
    },
    {
      "constant": false,
      "inputs": [
        {
          "internalType": "bytes32",
          "name": "_borrowerid",
          "type": "bytes32"
        },
        {
          "internalType": "enum Hello.Homeownership",
          "name": "_homeownership",
          "type": "uint8"
        },
        {
          "internalType": "int256",
          "name": "_annualincome",
          "type": "int256"
        },
        {
          "internalType": "string",
          "name": "_verificationstatus",
          "type": "string"
        },
        {
          "internalType": "bytes8",
          "name": "_zipcode",
          "type": "bytes8"
        },
        {
          "internalType": "bytes2",
          "name": "_addrstate",
          "type": "bytes2"
        },
        {
          "internalType": "string",
          "name": "_employmenttitle",
          "type": "string"
        },
        {
          "internalType": "uint256",
          "name": "_ficorangelow",
          "type": "uint256"
        },
        {
          "internalType": "uint256",
          "name": "_ficorangehigh",
          "type": "uint256"
        }
      ],
      "name": "setBorrower",
      "outputs": [],
      "payable": false,
      "stateMutability": "nonpayable",
      "type": "function"
    },
    {
      "constant": false,
      "inputs": [
        {
          "internalType": "uint256",
          "name": "_loanid",
          "type": "uint256"
        },
        {
          "internalType": "bytes32",
          "name": "_borrowerid",
          "type": "bytes32"
        },
        {
          "internalType": "enum Hello.Loanstatus",
          "name": "_loanstatus",
          "type": "uint8"
        },
        {
          "internalType": "enum Hello.Loanterm",
          "name": "_loanterm",
          "type": "uint8"
        },
        {
          "internalType": "int256",
          "name": "_loanamt",
          "type": "int256"
        },
        {
          "internalType": "int256",
          "name": "_interestratebasispoints",
          "type": "int256"
        },
        {
          "internalType": "int256",
          "name": "_installment",
          "type": "int256"
        }
      ],
      "name": "setLoan",
      "outputs": [],
      "payable": false,
      "stateMutability": "nonpayable",
      "type": "function"
    },
    {
      "constant": true,
      "inputs": [],
      "name": "getLoans",
      "outputs": [
        {
          "internalType": "uint256[]",
          "name": "",
          "type": "uint256[]"
        }
      ],
      "payable": false,
      "stateMutability": "view",
      "type": "function"
    },
    {
      "constant": true,
      "inputs": [
        {
          "internalType": "uint256",
          "name": "_loanid",
          "type": "uint256"
        }
      ],
      "name": "getLoanEconomics",
      "outputs": [
        {
          "internalType": "uint256",
          "name": "",
          "type": "uint256"
        },
        {
          "internalType": "int256",
          "name": "",
          "type": "int256"
        },
        {
          "internalType": "int256",
          "name": "",
          "type": "int256"
        },
        {
          "internalType": "int256",
          "name": "",
          "type": "int256"
        }
      ],
      "payable": false,
      "stateMutability": "view",
      "type": "function"
    },
    {
      "constant": false,
      "inputs": [
        {
          "internalType": "string",
          "name": "_name",
          "type": "string"
        }
      ],
      "name": "setName",
      "outputs": [],
      "payable": false,
      "stateMutability": "nonpayable",
      "type": "function"
    },
    {
      "constant": true,
      "inputs": [],
      "name": "getName",
      "outputs": [
        {
          "internalType": "string",
          "name": "",
          "type": "string"
        }
      ],
      "payable": false,
      "stateMutability": "view",
      "type": "function"
    },
    {
      "constant": true,
      "inputs": [],
      "name": "sayHello",
      "outputs": [
        {
          "internalType": "string",
          "name": "",
          "type": "string"
        },
        {
          "internalType": "string",
          "name": "",
          "type": "string"
        }
      ],
      "payable": false,
      "stateMutability": "view",
      "type": "function"
    }
  ],
  "bytecode": "0x608060405234801561001057600080fd5b5033600460006101000a81548173ffffffffffffffffffffffffffffffffffffffff021916908373ffffffffffffffffffffffffffffffffffffffff160217905550610cc9806100616000396000f3fe608060405234801561001057600080fd5b50600436106100935760003560e01c8063c47f002711610066578063c47f002714610213578063db380c7e146102ce578063dd5050371461033e578063ef5fb05b14610516578063f93928441461060557610093565b806317d7de7c1461009857806384bf0cb81461011b578063aa4a87111461015d578063bc4aa83c146101bc575b600080fd5b6100a0610647565b6040518080602001828103825283818151815260200191508051906020019080838360005b838110156100e05780820151818401526020810190506100c5565b50505050905090810190601f16801561010d5780820380516001836020036101000a031916815260200191505b509250505060405180910390f35b6101476004803603602081101561013157600080fd5b81019080803590602001909291905050506106e9565b6040518082815260200191505060405180910390f35b61016561070a565b6040518080602001828103825283818151815260200191508051906020019060200280838360005b838110156101a857808201518184015260208101905061018d565b505050509050019250505060405180910390f35b6101e8600480360360208110156101d257600080fd5b8101908080359060200190929190505050610762565b6040518085815260200184815260200183815260200182815260200194505050505060405180910390f35b6102cc6004803603602081101561022957600080fd5b810190808035906020019064010000000081111561024657600080fd5b82018360208201111561025857600080fd5b8035906020019184600183028401116401000000008311171561027a57600080fd5b91908080601f016020809104026020016040519081016040528093929190818152602001838380828437600081840152601f19601f820116905080830192505050505050509192919290505050610802565b005b61033c600480360360e08110156102e457600080fd5b810190808035906020019092919080359060200190929190803560ff169060200190929190803560ff1690602001909291908035906020019092919080359060200190929190803590602001909291905050506108df565b005b610514600480360361012081101561035557600080fd5b8101908080359060200190929190803560ff169060200190929190803590602001909291908035906020019064010000000081111561039357600080fd5b8201836020820111156103a557600080fd5b803590602001918460018302840111640100000000831117156103c757600080fd5b91908080601f016020809104026020016040519081016040528093929190818152602001838380828437600081840152601f19601f820116905080830192505050505050509192919290803577ffffffffffffffffffffffffffffffffffffffffffffffff1916906020019092919080357dffffffffffffffffffffffffffffffffffffffffffffffffffffffffffff191690602001909291908035906020019064010000000081111561047a57600080fd5b82018360208201111561048c57600080fd5b803590602001918460018302840111640100000000831117156104ae57600080fd5b91908080601f016020809104026020016040519081016040528093929190818152602001838380828437600081840152601f19601f82011690508083019250505050505050919291929080359060200190929190803590602001909291905050506109c2565b005b61051e610aee565b604051808060200180602001838103835285818151815260200191508051906020019080838360005b83811015610562578082015181840152602081019050610547565b50505050905090810190601f16801561058f5780820380516001836020036101000a031916815260200191505b50838103825284818151815260200191508051906020019080838360005b838110156105c85780820151818401526020810190506105ad565b50505050905090810190601f1680156105f55780820380516001836020036101000a031916815260200191505b5094505050505060405180910390f35b6106316004803603602081101561061b57600080fd5b8101908080359060200190929190505050610bce565b6040518082815260200191505060405180910390f35b606060058054600181600116156101000203166002900480601f0160208091040260200160405190810160405280929190818152602001828054600181600116156101000203166002900480156106df5780601f106106b4576101008083540402835291602001916106df565b820191906000526020600020905b8154815290600101906020018083116106c257829003601f168201915b5050505050905090565b600281815481106106f657fe5b906000526020600020016000915090505481565b6060600280548060200260200160405190810160405280929190818152602001828054801561075857602002820191906000526020600020905b815481526020019060010190808311610744575b5050505050905090565b60008060008060008086815260200190815260200160002060060160009054906101000a900460ff16156107e0578460008087815260200190815260200160002060030154600080888152602001908152602001600020600401546000808981526020019081526020016000206005015493509350935093506107fb565b60008060008083935082925081915080905093509350935093505b9193509193565b600460009054906101000a900473ffffffffffffffffffffffffffffffffffffffff1673ffffffffffffffffffffffffffffffffffffffff163373ffffffffffffffffffffffffffffffffffffffff16146108c5576040517f08c379a00000000000000000000000000000000000000000000000000000000081526004018080602001828103825260168152602001807f596f7520617265206e6f7420746865206f776e6572210000000000000000000081525060200191505060405180910390fd5b80600590805190602001906108db929190610bef565b5050565b60008060008981526020019081526020016000209050878160000181905550868160010181905550858160020160006101000a81548160ff0219169083600481111561092757fe5b0217905550848160020160016101000a81548160ff0219169083600181111561094c57fe5b021790555083816003018190555082816004018190555081816005018190555060018160060160006101000a81548160ff02191690831515021790555060016002899080600181540180825580915050906001820390600052602060002001600090919290919091505550505050505050505050565b6000600160008b81526020019081526020016000209050898160000181905550888160010160006101000a81548160ff02191690836002811115610a0257fe5b021790555087816002018190555086816003019080519060200190610a28929190610bef565b50858160040160006101000a81548167ffffffffffffffff021916908360c01c0217905550848160040160086101000a81548161ffff021916908360f01c021790555083816005019080519060200190610a83929190610bef565b5082816006018190555081816007018190555060018160080160006101000a81548160ff021916908315150217905550600160038b90806001815401808255809150509060018203906000526020600020016000909192909190915055505050505050505050505050565b60608060056040518060400160405280601281526020017f48656c6c6f206d79206e616d652069733a20000000000000000000000000000081525090808054600181600116156101000203166002900480601f016020809104026020016040519081016040528092919081815260200182805460018160011615610100020316600290048015610bbf5780601f10610b9457610100808354040283529160200191610bbf565b820191906000526020600020905b815481529060010190602001808311610ba257829003601f168201915b50505050509050915091509091565b60038181548110610bdb57fe5b906000526020600020016000915090505481565b828054600181600116156101000203166002900490600052602060002090601f016020900481019282601f10610c3057805160ff1916838001178555610c5e565b82800160010185558215610c5e579182015b82811115610c5d578251825591602001919060010190610c42565b5b509050610c6b9190610c6f565b5090565b610c9191905b80821115610c8d576000816000905550600101610c75565b5090565b9056fea265627a7a72315820829d9dd07871826de9bf6e9394739484913c9cdc249e1e6f47fb0043b766876e64736f6c63430005100032",
  "source": "pragma solidity ^0.5.1;\n\ncontract Hello {\n\n\tenum Homeownership {own, mortgage, rent}\n\tenum Loanstatus {current, fullypaid, late16to30, late31to120, graceperiod}\n\tenum Loanterm {m36, m60}\n\tenum LoanPurpose{car, creditcard, debtconsolidation, homeimprovement, medical, house, majorpurchase, renewableenergy, smallbusiness, vacation}\n\n\t//declares a struct that represents a loan\n\tstruct Borrower{\n\t\tbytes32 borrowerid;\n\t\tHomeownership homeownership;\n\t\tint annualincome;\n\t\tstring verificationstatus; //{Not verified, verified, source verified}\n\t\tbytes8 zipcode;\n\t\tbytes2 addrstate;\n\t\tstring employmenttitle;\n\t\tuint ficorangelow;\n\t\tuint ficorangehigh;\n\t\tbool isValue;\n\t}\n\n\tstruct Loan{\n\t\tuint loanid;\n\t\tbytes32 borrowerid;\n\t\tLoanstatus loanstatus;\n\t\tLoanterm loanterm;\n\t\tint loanamt;\n\t\tint interestratebasispoints;\n\t\tint installment;\n\t\tbool isValue;\n\t}\n\n\tmapping (uint => Loan) loansbook;\n\tmapping (bytes32 => Borrower) borrowers;\n\n\tuint[] public loanids;\n\tbytes32[] public borrowerids;\n\n\tfunction setBorrower(\n\t\tbytes32 _borrowerid, \n\t\tHomeownership _homeownership, \n\t\tint _annualincome, \n\t\tstring memory _verificationstatus,\n\t\tbytes8 _zipcode,\n\t\tbytes2 _addrstate,\n\t\tstring memory _employmenttitle,\n\t\tuint _ficorangelow,\n\t\tuint _ficorangehigh\n\t) public {\n\t\tBorrower storage borrower = borrowers[_borrowerid];\n\t\tborrower.borrowerid = _borrowerid;\n\t\tborrower.homeownership = _homeownership;\n\t\tborrower.annualincome = _annualincome;\n\t\tborrower.verificationstatus = _verificationstatus;\n\t\tborrower.zipcode = _zipcode;\n\t\tborrower.addrstate = _addrstate;\n\t\tborrower.employmenttitle = _employmenttitle;\n\t\tborrower.ficorangelow = _ficorangelow;\n\t\tborrower.ficorangehigh = _ficorangehigh;\n\t\tborrower.isValue = true;\n\t\tborrowerids.push(_borrowerid)-1;\n\t}\n\n\tfunction setLoan(uint _loanid, bytes32 _borrowerid, Loanstatus _loanstatus, Loanterm _loanterm, int _loanamt, int _interestratebasispoints, int _installment) public {\n\t\tLoan storage loan = loansbook[_loanid]; //have to be explicit about storage vs memory location, loans have to be persistent hence kept in \"storage\"\n\t\tloan.loanid = _loanid;\n\t\tloan.borrowerid = _borrowerid;\n\t\tloan.loanstatus = _loanstatus;\n\t\tloan.loanterm = _loanterm;\n\t\tloan.loanamt = _loanamt;\n\t\tloan.interestratebasispoints = _interestratebasispoints;\n\t\tloan.installment = _installment;\n\t\tloan.isValue = true;\n\t\tloanids.push(_loanid) - 1;\n\t}\n\n\tfunction getLoans() view public returns(uint[] memory){//have to be explicit in returning a clone of the loansid array through memory instead of storage\n\t\treturn loanids;\n\t}\n\n\tfunction getLoanEconomics(uint _loanid) public view returns(uint, int, int, int){//will return the loanid, loan amount, loan basis points, installment\n\t\tif(loansbook[_loanid].isValue){\n\t\t\t//check if the loan id is real\n\t\t\treturn(_loanid,loansbook[_loanid].loanamt,loansbook[_loanid].interestratebasispoints, loansbook[_loanid].installment);\n\t\t}else{\n\t\t\t//else it wasn't real if we fail to return?\n\t\t\treturn(0,0,0,0);\n\t\t}\n\t} \n\n\taddress private owner;\n\tstring private name;\n\t\n\tconstructor() public {\n\t\towner = msg.sender;\n\t}\n\t\n\tfunction setName(string memory _name) public {\n\t\trequire(msg.sender == owner, \"You are not the owner!\");\n\t\tname = _name;\n\t}\n\t\n\tfunction getName() public view returns (string memory){\n\t\treturn name;\n\t}\n\t\n\tfunction sayHello() public view returns (string memory, string memory){\n\t\treturn (\"Hello my name is: \", name);\n\t}\n\t\n}\n",
  "sourcePath": "/Users/stanleyyong/localchaingeth/hello/contracts/Hello.sol",
  "compiler": {
    "name": "solc",
    "version": "0.5.16+commit.9c3226ce.Emscripten.clang"
  },
  "schemaVersion": "3.0.21",
  "updatedAt": "2020-01-22T07:06:44.542Z",
  "devdoc": {
    "methods": {}
  },
  "userdoc": {
    "methods": {}
  }
}